:020000040800F2
:10000000000002202915000871150008711500086C
:100010007115000871150008711500080000000036
:100020000000000000000000000000007115000842
:100030007115000800000000711500087115000816
:100040007115000871150008711500087115000878
:100050007115000871150008D10500087115000818
:100060007115000871150008711500087115000858
:100070007115000871150008711500087115000848
:100080007115000871150008711500087115000838
:100090007115000871150008711500087115000828
:1000A0007115000871150008711500087115000818
:1000B0007115000871150008711500087115000808
:1000C00071150008711500087115000871150008F8
:1000D00071150008711500081D080008C906000800
:1000E00071150008711500087115000871150008D8
:1000F00071150008711500087115000871150008C8
:1001000071150008711500087115000871150008B7
:100110007115000871150008711500087D1100089F
:100120007115000871150008711500087115000897
:100130007115000871150008711500087115000887
:100140007115000871150008711500087115000877
:100150007115000871150008711500087115000867
:100160007115000871150008711500087115000857
:100170007115000871150008711500087115000847
:0801800071150008711500085B
:1001880010B5054C237833B9044B13B10448AFF3C9
:1001980000800123237010BD4C04002000000000E3
:1001A8002029000808B5034B1BB103490348AFF3E6
:1001B800008008BD0000000050040020202900082D
:1001C800154B002B08BF134B9D46A3F5803A002121
:1001D8008B460F461348144A121A02F045F80F4B83
:1001E800002B00D098470E4B002B00D098470020DA
:1001F800002104000D000D48002802D00C4802F030
:10020800FBF802F00DF82000290001F039F901F09F
:10021800F7FF00BF00000800000000000000000019
:10022800000000004C040020A4080020012400085D
:100238000D24000870B5841E00F2E63634F8025F1B
:10024800280A00F069FAE8B200F066FAB442F5D17B
:1002580070BD00BF70B52DED0C8BDFED69CA9FED49
:10026800699ADFED699A9FED698ADFED698ADFEDAA
:1002780069AA9FED69CADFED69BA9FED69AAB0EE78
:100288006CBA0D46841E00F2E636DDB99FED650AAC
:100298002CEE800A01F06AF9DFED637AB6EE007A97
:1002A800A0EE277A67EE287A7CEE88CAFCEEE77A19
:1002B80017EE903A9BB224F8023FB442E5D1BDEC68
:1002C8000C8B70BD012D0DD0022D2DD0032D3BD0F0
:1002D80067EE287A7CEE88CAFCEEE77A17EE903A49
:1002E8009BB2E8E79FED4F0A2CEE800A01F03EF939
:1002F800B0EE40DA9FED4D0A2CEE800A01F036F997
:10030800DFED4B6ADFED4B7AB6EE007AADEE267A7A
:100318007CEE88CAA0EE277A67EE287AFCEEE77AA8
:1003280017EE903A9BB2C6E7F4EEC9CAF1EE10FA9E
:1003380016D5CCEE897AB7EE007A77EE877AF0EEAA
:10034800086A87EEA67AADE7F4EEC9CAF1EE10FAAC
:1003580025D57CEE88CA40F6FF73B7EE007AAAE787
:10036800F4EEE9CAF1EE10FA24D53CEEC97AF8EEBB
:10037800007A27EE277AB0EE006AC7EE0A7AF0EE26
:10038800086A77EE867A7CEE88CA87EEA67A67EEE8
:10039800287AFCEEE77A17EE903A9BB28BE7F4EEF8
:1003A800E9CAF1EE10FA1CD57CEE88CA0023B0EE3B
:1003B8004B7A80E7F4EEEACAF1EE10FA18D53CEE73
:1003C800E97AF0EE087AC7EE2B6A7CEE88CA86EEE8
:1003D800A77A67EE287AFCEEE77A17EE903A9BB296
:1003E80069E7DFED0ACA40F6FF73B7EE007A62E705
:1003F800DFED06CA40F25553B0EE4C7A5BE700BF1A
:10040800000000006F12833AA69B443B17B7D1380F
:1004180000F07F456F12833BABAAAA3E7012833A65
:100428006E12033B5A141D449A99993E5A149D45DD
:10043800CDCC4C3ECDCCCC3D70B50D462DED0A8BC8
:10044800841EDFED51CA9FED51CA9FED51AA9FED61
:10045800518ADFED51BA9FED51BADFED51AADFEDB8
:10046800519ADFED518A9FED519A00F2E63616E077
:10047800022D32D0032D42D0042D50D0052D55D059
:10048800062D61D0072D6DD0082D79D0002324F8D2
:10049800023FDFED477AA6427CEEA7CA1AD0012DAB
:1004A800E6D19FED440A2CEE800A01F05FF8DFEDFB
:1004B800427A20EE270ADFED3E7A20EE080A7CEE2B
:1004C800A7CABCEEC00A10EE103A9BB224F8023F4D
:1004D800A642E4D1BDEC0A8B70BD9FED380A2CEE24
:1004E800800A01F043F8DFED367A60EE277A67EE8E
:1004F800887AFCEEE77A17EE903A9BB2C7E79FED51
:10050800310A2CEE800A01F031F820EE280A20EE9C
:10051800080ABCEEC00A10EE103A9BB2B7E72CEE00
:10052800890A01F023F8F6EE007ADEE72CEEA90A34
:1005380001F01CF860EE287A67EE887AFCEEE77A1C
:1005480017EE903A9BB2A2E72CEEAA0A01F00EF839
:1005580060EE0A7A67EE887AFCEEE77A17EE903A50
:100568009BB294E72CEEAB0A01F000F860EE0B7A30
:1005780067EE887AFCEEE77A17EE903A9BB286E748
:100588002CEE8C0AE2E700BF00000000D37EBC44DA
:10059800CDCCCC3E00F07F4597C9AC443333B33E55
:1005A8005A149D441E5F8D449A99993EC4537B44C6
:1005B80017B7D1385A141D44CDCCCC3DD37E3C441A
:1005C800CDCC4C3E4CE95B44064B5B69DB0705D55B
:1005D800054B1A781AB1034B01225A617047012260
:1005E8001A70F8E7003C01406804002010B5144C6C
:1005F8002378DBB2022B18D0032B0ED0012B00D0AE
:1006080010BD63780133DBB263706378032B84BF5A
:10061800002363700223237010BD6068322100F04C
:10062800BFFD0028ECD1207010BD064B1B69DB070D
:10063800E6D40323237000F0ADFD606010BD00BF59
:1006480068040020000002400F4A104B116B41F073
:10065800080110B4116319680D4C21F47021196058
:10066800196841F420211960596A41F077015962EB
:10067800136C80B243F4802342F20C01136420818E
:10068800A1815DF8044B704700380240000C02401D
:1006980000480040084A0949938923F400531B0481
:1006A8001B0C802093814860938943F4005343F0E6
:1006B80024039381704700BF0048004000E100E038
:1006C8000A4B1A88920610D5094A9988138809484E
:1006D8009BB2C9B2C154138801339BB213801388EB
:1006E800B3F5007F24BF0023138070470048004003
:1006F8007004002080060020064B59881A8892B2A0
:100708008A4205D05A88B2F5007F24BF00225A8059
:10071800704700BF70040020034A13885B06FCD5AD
:1007280080B29080704700BF004800400C4B9A8907
:1007380042F4005242F004029A811A889206FCD5CB
:1007480098881A8822F020021204120C1A809A89BA
:1007580022F004021204120C40B29A81704700BFC2
:10076800004800400A4B59881A8892B28A420DD034
:100778005A88013292B25A805A88B2F5007F03D360
:1007880000225A80012070470120704700207047DE
:1007980070040020114A124B116B41F0010110B492
:1007A8001163116C0F4C41F4003111641A6842F066
:1007B800A0021A601A6A42F4EE421A629A6842F07B
:1007C80020029A609A6880B242F0800242F20C01DC
:1007D8009A602081A1815DF8044B7047003802407F
:1007E8000000024000440040084A0949938923F464
:1007F80000531B041B0C402093814860938943F4E9
:10080800005343F024039381704700BF0044004025
:1008180000E100E00A4B1A88920610D5094A998827
:10082800938809489BB2C9B2C154938801339BB2DB
:1008380093809388B3F5007F24BF0023938070478B
:1008480000440040700400207C040020034A138800
:100858005B06FCD580B29080704700BF0044004022
:100868000C4A30B4441E0D2500F2FF3014F8011F65
:1008780049B113885B06FCD589B2918023780A2B8D
:1008880003D08442F2D130BC704713885B06FCD594
:100898009580F6E7004400400FB42DE9F0498DB08B
:1008A80014AB53F8046B0193327862B300246A4D99
:1008B8006A4F234631464FF00D08252A14D1334498
:1008C8005A78CAB1623A162A00F29980DFE802F033
:1008D8007F75649742979797979797979797979762
:1008E80097399797979726002B885806FCD592B288
:1008F800AA800B780A2B0BD00134A4B22346325DB0
:100908003119002AD9D10DB0BDE8F04904B07047BB
:100918002B885B06FCD5A5F80480EDE79B78019A47
:10092800622B02F1040112686FD0682B00F08680F8
:10093800772B04BF0134A4B2CDE900214FF4006045
:1009480055E0019B1A1D18680192FFF789FF0134D1
:10095800A4B2D1E7019B073323F00703D3E900BC16
:10096800083307EACC02BBF1000F42EA5B7201933D
:100978004FF000007CF100030CF08041B8BF42F05A
:10098800004250EA010300923CD0009B43F08043B0
:1009980000934FF480702AE09B78019A622B02F151
:1009A800040112683ED0682B4FD0772B04BF013466
:1009B800A4B2CDE90021202019E0019B191D1A7865
:1009C80001912B885B06FCD593B2AB80BFE79B787F
:1009D800019A622B02F1040112681DD0682B27D0FE
:1009E800772BCDE9002104BF0134A4B2042002AA68
:1009F800694600F029F902A8FFF732FFA7E70023AC
:100A08000093A4E74FF48070F1E70134A4B2CDE974
:100A180000214FF40070EAE70134A4B2CDE90021C7
:100A28000120E4E70134A4B2CDE900210820DEE783
:100A38000134A4B2CDE900210220D8E70134A4B2E0
:100A4800CDE900214FF48060D1E70134A4B2CDE9AB
:100A580000211020CBE700BF00440040F8FFFF3F13
:100A68002D492E48CB889BB25A1C92B2CA80C35CCF
:100A78003B3B382B4ED8DFE803F0234D4D4D4D4D11
:100A88004D4D4D4D4D4D4D4D4D4D4D4D4D4D4D4D8E
:100A98004D4D4D4D4D4D4D4D4D4D4D4D4D4D4D4D7E
:100AA800294D4D2F4D354D4D4D3B41474D4D4D4DEC
:100AB8004D4D1D001A4B1B4802221A70FFF7ECBE61
:100AC800174B194808221A70FFF7E6BE144B17484F
:100AD80001221A70FFF7E0BE114B154803221A7065
:100AE800FFF7DABE0E4B134804221A70FFF7D4BE84
:100AF8000B4B114805221A70FFF7CEBE084B0F4862
:100B080006221A70FFF7C8BE054B0D4807221A7057
:100B1800FFF7C2BE704700BF700400207C040020AD
:100B28007C06002030250008482500082C250008F0
:100B380034250008382500083C2500084025000811
:100B48004425000810B5074CE288A3889BB293425D
:100B580007D0FFF785FFE388B3F5007F24BF0023A4
:100B6800E38010BD700400200C4B9A8942F40052B7
:100B780042F004029A811A889206FCD598881A884D
:100B880022F020021204120C1A809A8922F0040220
:100B98001204120CC0B29A81704700BF0044004092
:100BA800F0B40D4A0D4F00F10A053026914205F8C0
:100BB800016D08D3312400E01C46891A631C914258
:100BC800DBB2F9D22C70A7FB0232A8424FEAD2025C
:100BD800ECD1F0BC704700BF00CA9A3BCDCCCCCC5E
:100BE80070B400F10A06002416F8013D302BE5B276
:100BF8001FD00C8813550B886C1C0133E4B29BB2D0
:100C08000A2C0B8011D0C5F10805061BEDB2751B27
:100C1800C4F109040835044414F80109D0540B88B8
:100C280001339BB2A5420B80F6D10021D15470BC90
:100C38007047092C01D00134D6E7088813540B8873
:100C480001339BB20B80F0E72DE9F04F87B000230A
:100C5800102817461370ADF80A3000F04A8120D9E1
:100C6800B0F5007F4BD07AD9B0F5806F61D0B0F580
:100C7800006F13D10B6802F108041B0F092BD8B2BF
:100C880000F130038ABF3730137010700B680132DF
:100C98001B0194420B60F0D100233B7207B0BDE802
:100CA800F08F022800F00E8117D9042840F01E8129
:100CB8000B6802F1200030243125002BB4BF1570D9
:100CC80014700B6801325B0090420B60F5D1002371
:100CD80087F8203007B0BDE8F08F0128DED10B6817
:100CE80002F10800302531241E064CBF147015701F
:100CF8000B6801325B0090420B60F5D1CCE70B68C2
:100D0800C3F30313092B8CBF3733303313700B68CD
:100D18001A0103F00F03092B94BF303337330A60ED
:100D28007B700B6800221B010B60BA7007B0BDE82E
:100D3800F08F0B68141DC3F30333092B03F1300044
:100D48008ABF3733107013700B6801321B01A2423F
:100D58000B60F0D100233B7107B0BDE8F08F20286D
:100D680000F0C780B0F5807F98D191ED007AB5EE9C
:100D7800C07AF1EE10FA06D52D220123B1EE477A9A
:100D88003A70ADF80A30F7EE007AB4EEE77AF1EE91
:100D980010FA00F1D68040F3EA800024B2EE046A2B
:100DA80000E01C4667EE867A631CB4EEE77AF1EE43
:100DB80010FA9BB2F5DCC7EE866A4FF0200B0DF1F6
:100DC80016086E48DFF8BCC143460DF10C09302601
:100DD800C7EE267A9FED6A7AFCEEE76A16EE901A5D
:100DE800F8EE666A77EEE67A67EE877AFCEEE77ADF
:100DF80017EE905A884203F8016D06D83022091A76
:100E080001328142D2B2FAD21A70ACFB0020994565
:100E18004FEAD000EED10DF10A0A51463A4648464B
:100E28000193FFF7DDFE5549DFF858E1019B46467F
:100E38004FF0300CA94206F801CD08D8312000E067
:100E480010466D1A421C8D42D2B2F9D23070AEFBF8
:100E580001219E424FEAD101ECD12E233A46514658
:100E680048468DF80F30FFF7BBFEBDF80A20531C2B
:100E780065219BB2BBF12D0FB954ADF80A3004D1EE
:100E8800023207F803B0ADF80A203C4A3D48302149
:100E9800A24208F8011D07D83023A41A013394424E
:100EA800DBB2FAD288F80030A0FB023246454FEA9E
:100EB800D202EDD13A4651464846FFF791FE07B0B7
:100EC800BDE8F08F0B6802F11000302531241B04B7
:100ED8004CBF147015700B6801325B0090420B60B8
:100EE800F5D100233B7407B0BDE8F08F08287FF4E4
:100EF800D5AE0A68002A07DA2D233B700A68012359
:100F080052420A60ADF80A301C491E4E0DF10C0918
:100F18000DF116043025914204F8015D08D83120FE
:100F280000E01846521A431C8A42DBB2F9D22070FC
:100F3800A6FB0131A1454FEAD101ECD10DF10A0A16
:100F4800B8E7DFED116AB4EEE67AF1EE10FA13D5E0
:100F5800F0EE667A012466EEA76A0134B4EEE67A0A
:100F6800F1EE10FAA4B2F6D44FF02D0B27E74FF6A6
:100F7800FF74DFED056A20E70124F5E700CA9A3B14
:100F880000007A44CDCCCCCCCDCCCC3D1749184A06
:100F98000B6C43F0400330B40B64532584234FF4A7
:100FA8007A741585D4621380938A43F0010393827F
:100FB800138843F00103138050B1138ADB07FCD573
:100FC800138A23F001031B041B0C01381382F4D18C
:100FD8000749064A0B8823F001031B041B0C0B80EE
:100FE800136C23F04003136430BC70470038024090
:100FF800001800401749184A0B6C43F0400330B4FE
:101008000B640025842354241585D4621380938AA5
:1010180043F001039382138843F00103138050B116
:10102800138ADB07FCD5138A23F001031B041B0C6E
:1010380001381382F4D10849064A0B8823F00103CA
:101048001B041B0C0B80136C23F04003136430BC8F
:10105800704700BF003802400018004009490A4B99
:101068000A6C30B442F008020A6453254FF0FF348A
:10107800002284201D85DC62188030BC9A805A6268
:10108800704700BF00380240000C0040044B9A8AA9
:1010980042F001029A821A8842F001021A807047CF
:1010A800000C0040044A506A138823F001031B0413
:1010B8001B0C1380704700BF000C00400D490A6CE0
:1010C8004FF0804342F0010230B484200A64532573
:1010D80000224FF0FF341D85DC6218809A805A6226
:1010E8009A8A42F001029A821A8842F001021A8012
:1010F80030BC7047003802404FF08043586A704750
:101108004FF080435B6A834205D30844984294BFFA
:10111800002001207047C043184488422CBF00209B
:10112800012070471049114B0A6C114842F0200207
:1011380030B40A64532500224FF47A7484211D8543
:10114800DC6219809A805A62998A012529434FF4F2
:10115800000499829D8180F8372344601A882A43C5
:101168001A8030BC704700BF0038024000140040AD
:1011780000E100E0054B1A8AD20705D504490A6840
:10118800002001320A601882704700BF0014004036
:1011980078040020014B1868704700BF78040020CD
:1011A800084B1B68834205D30844984294BF00202B
:1011B80001207047C043184488422CBF00200120FA
:1011C800704700BF780400200A4A0B4B116B0B488C
:1011D80041F001011163116C41F0005111641A686A
:1011E80042F440721A60DA683D2122F44072DA60F3
:1011F800016070470038024000000240007400405F
:10120800044A5368DB07FCD4C0F30B000123906049
:101218005360704700740040344B354A30B41C6B3F
:10122800344D44F001041C632C6844F440742C6071
:101238001D6C314C45F010051D645325158564253A
:10124800D5628425158020259580958A45F001056D
:101258009582158845F0010515801A6C274D42F0D6
:1012680000521A64226822F0010222604FF4805270
:101278002260226842F004022260226842F00102E1
:1012880022601A6B002442F400121A632B462C6069
:101298001A68D207FCD41A4A1A4D4FF0FF349460EA
:1012A800D4609D60D86059601A6842F060621A6024
:1012B8001A6842F440321A601A6842F480621A606E
:1012C8001A6842F480721A601A6842F400621A605E
:1012D8001A6842F400521A601A6842F040021A6012
:1012E8001A6842F001021A6030BC704700380240A8
:1012F8000010004000000240007400408860024076
:1013080000600240087400405029000800000020D6
:101318004C0400204C040020A4080020384B394815
:101328001A68002142F001021A6099601A6822F0D6
:10133800847222F480321A6058601A6882B022F4EB
:1013480080221A60D960009101911A6842F48032B3
:101358001A601A4603E0009BB3F5A06F09D0136822
:1013680003F400330193009B01330093019B002B8E
:10137800F1D0234B1B6813F4003318BF01230193EA
:10138800019B012B0BD0204BD3F888204FF0006134
:1013980042F47002C3F88820996002B07047184B75
:1013A8001A491A6C1A4842F080521A640A6842F4C0
:1013B80080420A609A689A609A6842F400429A6089
:1013C8009A6842F4A0529A6058601A6842F0807293
:1013D8001A601A689201FCD50E49094A40F2056064
:1013E8000860996821F003019960996841F0020149
:1013F8009960936803F00C03082BFAD1C3E700BF88
:10140800003802401030002400ED00E00070004079
:1014180008544007003C0240154A936803F00C0347
:10142800042B23D0082B09D0124B114A1249926879
:10143800C2F303128A5CD3400B617047506851684D
:1014480052684302C2F3881201F03F014CBF0B4BB4
:10145800084BB3FBF1F303FB02F3054A5268C2F3EE
:10146800014201325200B3FBF2F3DEE7034BDCE743
:10147800003802400024F4000400002000127A0022
:10148800214A2248116B224B41F0010170B51163CA
:101498000168204E204D214C21F003010160516C60
:1014A80041F48041516401200021B16018605A68FC
:1014B80022F001025A6040229860ADF57A7DD96029
:1014C8002D202A60FFF766F9FFF78EF92D20FFF728
:1014D800BBF8FFF7DFF821786846FEF7ADFF6846EE
:1014E8004FF4FA71FFF798FE03E021786846FEF79B
:1014F800A3FFFFF727FBFFF735F90128F5D1684669
:10150800FEF798FEF1E700BF0038024000000240F5
:10151800003C01400038014000E100E07C0600206A
:10152800002103E00B4B5B58435004310A480B4B36
:1015380042189A42F6D30A4A02E0002342F8043BD2
:10154800084B9A42F9D3FFF7E9FE00F069FEFFF76E
:1015580097FF704750290008000000204C04002025
:101568004C040020A4080020FEE7000000B510EE9F
:10157800103A214A23F00043934283B01ADDB3F1B5
:10158800FF4F04DB30EE400A03B05DF804FB684609
:1015980000F036F800F00300012813D0022820D00C
:1015A800B8B1DDED010A9DED000A00F075F9B1EE64
:1015B800400AE9E70020DFED110A00F017FD03B04B
:1015C8005DF804FBDDED010A9DED000A00F064F909
:1015D800DAE70120DDED010A9DED000A00F006FDC5
:1015E800D2E70120DDED010A9DED000A00F0FEFCC6
:1015F800B1EE400AC8E700BFD80F493F000000001D
:1016080070B510EE103A964A23F00044944286B022
:10161800054669DD934A944210EE106A1ADC002BE5
:1016280024F00F04DFED907A904A64DD944270EE66
:10163800677A00F0CF809FED8E7A77EEC76A012037
:1016480077EEE67AC5ED006A77EEC77AC5ED017ADE
:1016580006B070BD874A944261DDB4F1FF4F80F255
:10166800B180E215863AA4EBC25307EE903ABDEE7C
:10167800E77ADFED816AB8EEC77A77EEC77A8DED43
:10168800037A67EEA67ABDEEE77AB8EEC77A77EE08
:10169800C77A8DED047A67EEA67AF5EE407AF1EE18
:1016A80010FACDED057A40F0C780B5EE407AF1EE3C
:1016B80010FA0CBF01230223704901910221009105
:1016C80003A8294600F06AF9002E12DA95ED007A8F
:1016D800D5ED017AB1EE477AF1EE677A404285EDB1
:1016E800007AC5ED017A04E0002285ED000A426027
:1016F800002006B070BD944270EE277A00F0898011
:101708009FED5B7A77EE876A4FF0FF3077EEE67AE7
:10171800C5ED006A77EE877AC5ED017AE9E700F052
:10172800ADFCDFED576ADFED505A9FED517AF6EECA
:10173800007AE0EE267AFDEEE77A17EE900AF8EEE8
:10174800E76A1F28B1EE666AA6EE250A66EE877A72
:1017580052DD30EE677A17EE103AE415C3F3C7533B
:10176800E31A082B52DDDFED477A9FED477AF0EE5A
:10177800405AE6EE275A30EE650AA6EE270AF0EE42
:10178800407AD6EE877A35EEE77A17EE103AC3F349
:10179800C753E41A192C51DC85ED007AB0EE650ABE
:1017A80030EE470A002E30EE670A85ED010AA0DA0E
:1017B800B1EE477AB1EE400A85ED007A85ED010A6F
:1017C800404296E770EE407A0020C5ED017AC5EDFB
:1017D800007A8EE7DFED2B6A9FED2B7A77EEE67ABB
:1017E800012077EEC76A77EEE67AC5ED006A77EEF4
:1017F800C77AC5ED017A7CE7421E244B53F82230A4
:1018080024F0FF029A4230EE677AA4D085ED007A80
:10181800C6E7DFED1C6A9FED1C7A77EEA67A4FF0DB
:10182800FF3077EE876A77EEE67AC5ED006A77EEE5
:10183800877AC5ED017A5CE703233DE79FED147ACB
:101848009FED145AB0EE650AA6EE070A75EEC07A47
:10185800E6EE077AD6EE857A30EE677AD6E700BFED
:10186800D80F493FE3CB1640800FC93FD00FC93F7F
:1018780043443537800F494300008043CC25000896
:1018880084F9223F0044353708A3852E4C250008EB
:1018980000A3852E32318D2410EE103A23F0004338
:1018A800B3F1485F2CDAFDEEC07A17EE903A002BC0
:1018B8005BD020EE007ADFED314A9FED315ADFED43
:1018C800315A9FED316ADFED317ADFED316AA7EEEB
:1018D800245AE7EE055AA7EE256AE7EE067AE7EE00
:1018E800276A66EE876A60EEC00AB6EE006AE7EE1F
:1018F800260AF7EE007AD7EE060A37EEE00A7047B6
:1019080020EE007ADFED1D4A9FED1D5ADFED1D5ACE
:101918009FED1D6ADFED1D7ADFED1D6A1D4AA7EEFA
:10192800245A9342E5EE075AA5EE876AE6EE077A4F
:10193800E7EE876A66EE876AD5DD174A934217DCB9
:1019480003F17F4307EE903AB7EE006A36EE676A16
:1019580060EEC00AF6EE005AE7EE260AD7EE257AC0
:1019680077EEE07A36EE670A7047B7EE000A7047FE
:10197800B6EE076AF5EE027AEAE700BF4ED747AD42
:10198800F6740F317CF293B4010DD037610BB6BAFF
:10199800ABAA2A3D9999993E0000483F2DE9F04F9E
:1019A8002DED048BD7B003F1FF390293D31E48BF46
:1019B800131DB24C649D0591DB1023EAE37354F8C0
:1019C8002560039303F10108A2EBC80816EB09028E
:1019D8008646A3EB090316D41A449FEDA97A6598A5
:1019E800511C1AAA002BA4BF50F8234007EE904AB6
:1019F80003F10103ACBFF8EEE77AF0EE477A8B42C9
:101A0800E2EC017AEED1029B002E4FEA83044FEA02
:101A1800860A1DDB1AAB181943AA7346191902EB7B
:101A28000A0742ADF446B9F1000FDFED957A09DBFC
:101A380002466346F3EC016A32ED017A8B42E6EE28
:101A4800877AF7D1E5EC017ABD4200F10400EAD1CA
:101A5800AAF1080306ADEB1804939FED8B9ADFED0E
:101A6800898A009605ABB34674449A4442AF7646D9
:101A78004FEA8B0156AB0B44BBF1000F13ED140A70
:101A880016DD07EB8B032A4660EE097AB0EE407A42
:101A9800FDEEE77A73ED016AF8EEE77ABB42A7EE4E
:101AA800E87A37EEA60ABDEEC77AA2EC017AEBD146
:101AB8004046019100F030FBB0EE408AB4EE000AD7
:101AC80028EE000A00F0E2FAF2EE007AA0EE678A49
:101AD800B8F1000F0199FDEEC89AF8EEE97A38EEF0
:101AE800678A40F3C4800BF1FF3CC8F1080355F83E
:101AF8002C2042FA03F000FA03F3D31A45F82C30ED
:101B080019EE90CA8444C8F1070209EE90CA43FA54
:101B180002F2002A31DD19EE903ABBF1000F03F111
:101B2800010309EE903A40F329822868002840F022
:101B38008680BBF1010F0BD0AE464FF0010C5EF86A
:101B4800040F0CF1010300287CD19B459C46F6D17B
:101B5800B8F1000F0EDDB8F1010F00F03281B8F1D5
:101B6800020F07D10BF1FF3155F8213003F03F0385
:101B780045F82130022A00F01281B5EE408AF1EED4
:101B880010FA40F09580009B0BF1FF3C63450EDC9A
:101B98000BF18041013905EB8101002051F804392E
:101BA800514540EA0300F9D1002840F01381009B19
:101BB800013B55F82330002B40F00081049B4FF087
:101BC800010C53F804290CF1010C002AF9D0DC446B
:101BD8000BF1010EE64530DC039B029A0EEB030184
:101BE8005A4403EB0C0B1AAB01F1804103EB820260
:101BF800659B013903EB810107EB8E0E03EB8B0B21
:101C080051F8043F9FED1E7A07EE903AF8EEE77A16
:101C18001046B9F1000FE0EC017A09DB334601E028
:101C280072ED017AF3EC016AA342A6EEA77AF7D126
:101C38005945AEEC017A0246E2D1E34618E70123A2
:101C48004FF0000CC0F580709B4545F82C000CDD6A
:101C580055F82300294405EB830300E01868C0F118
:101C6800FF0043F8040B8B42F8D1012070E70FD135
:101C78000BF1FF3355F8232012124AE71029000808
:101C880000000000000080430000803B0000C93FC6
:101C9800F6EE007AB4EEE78AF1EE10FA80F2588197
:101CA800B5EE408AF1EE10FA4FF000023FF46BAF48
:101CB800B0EE480AC8F100009146009E00F02CFAE8
:101CC8001FED107AB4EEC70AF1EE10FAC0F258818F
:101CD8005FED137A60EE277A0BF10103FDEEE77AE8
:101CE80008F10808F8EEE77AA7EEC70AFDEEE77AEA
:101CF800BDEEC00A10EE102A45F82B2017EE902AE8
:101D080045F823204046B7EE000A009300F004FA95
:101D1800009B002BC0F24B81980042AA00F1040CF2
:101D28001FED277A1044011D05EB0C0272ED017AB4
:101D3800F8EEE77AAA4267EE807A20EE070A61EDAC
:101D4800017AF3D10DF1B80E1FED306A05467746DA
:101D580003F101080024002EC0F20581A148DFED3F
:101D6800A27A2946B0EE467A002203E0A24208DCB5
:101D7800B0EC017AF1EC016A01329642E6EE877A1C
:101D8800F4DA01344445E7EC017AA5F10405E2D11F
:101D9800649A032A53D8DFE802F0CAB6B65BB7EEF6
:101DA800000A30EE488A00283FF4E7AE4046019228
:101DB80000F0B2F9019A38EE408ADEE64FF0010CE5
:101DC80005E70BF1FF3155F8213003F07F0345F8A3
:101DD8002130CFE6914655F82C20009E6346A8F1A5
:101DE8000808002A8ED10CF18042013A05EB8202E4
:101DF80052F80419013BA8F108080029F8D081E736
:101E08004A46DFED797A002A40F0C2809DED2E7AAD
:101E1800059A002BC2ED007A77EE677A0CDD2FA9C0
:101E28000122B1EC017A0132934277EE877AF8DA2F
:101E38004B46002B40F0B880059BC3ED017A19EEA4
:101E4800903A03F0070057B0BDEC048BBDE8F08F63
:101E5800002B40F3C480980056AA02440DF1B80E36
:101E680003F1804152ED286A01390EEB830272EDCD
:101E7800017A37EEA67A964577EEC77A82ED007A30
:101E880077EEA67AF0EE476AC2ED017AEFD1012B20
:101E980040F3A58056AB184489000B1D50ED286A05
:101EA80073442FAA73ED017A37EEA67A9A4277EE39
:101EB800C77A83ED007A77EEA67AF0EE476AC3ED2B
:101EC800017AEFD10831DFED487A0EEB01030EF10C
:101ED800080E33ED017A9E4577EE877AF9D14B46A5
:101EE800DDED2E6A9DED2F7A2BB1F1EE666AB1EE2B
:101EF800477AF1EE677A059BC3ED006A83ED017AB4
:101F0800C3ED027A9BE7002BFFF67AAF2EA901EB0F
:101F18008302DFED357A043232ED017A914277EEB1
:101F2800877AF9D14A46002A3FF470AF30E0DFEDF6
:101F38002E7AF4443CED017AE64577EE877AF9D1BA
:101F48004B460BB1F1EE677A059BC3ED007A76E755
:101F580019EE903ABBF1000F03F1010309EE903A34
:101F680037DD0222E1E5DFED207A01344445E7EC74
:101F7800017AA5F104057FF4EEAE09E70020E7E554
:101F8800BDEEC00A5B4610EE102A45F82B20B9E6D4
:101F9800DDED2E6A059AB1EE677A002B76EEE77AC8
:101FA80082ED007A3FF73BAFF1EE677A44E7649A37
:101FB800032A3FF644AF01A151F822F0D51F0008CB
:101FC8000F1F00080F1F0008591E0008DFED067AD2
:101FD800B6E7F7EE007A37EEC88A0222CDE5DFEDE4
:101FE800027A7CE7E82800080000000010EE103AAA
:101FF80023F00043B3F1485F04DAFDEEC07A17EE30
:10200800903A23B360EE007A9FED155ADFED155A2A
:102018009FED156ADFED156A9FED157AE7EE855A93
:1020280020EE275AA5EEA76AE6EE276AA6EEA77A5B
:1020380070B127EE457AF6EE006AA0EEA67ADFEDDB
:102048000D6AD7EE270AE5EE260A30EE600A7047D9
:10205800DFED096AE7EE876AA6EE850A704700BFDA
:10206800D3C92E2F342FD7B21BEF3836010D50B9F4
:102078008988083CABAA2A3EABAA2ABE10EE103AC1
:1020880023F0004300EE103A704700BF10EE102A0C
:1020980022F00041CB0D7F3B162B1CDC002B10EEF1
:1020A800100A1EDB194919410A4227D0DFED187AB8
:1020B80070EE277AF5EEC07AF1EE10FA1EDD002AEE
:1020C80004DA4FF4000242FA03F3184420EA010349
:1020D80000EE103A7047B1F1FF4F0FD330EE000A0F
:1020E8007047DFED0B7A70EE277AF5EEC07AF1EEE5
:1020F80010FA03DD002A02DB9FED060A704700296B
:10210800FFEE007A18BFB0EE670A7047FFFF7F0046
:10211800CAF249710000000008B510EE103A33F019
:1021280000422DED028B11D0B2F1FF4F11D2B2F562
:10213800000F13D3D20D0244FE2A1CDC002A2ADD2C
:1021480023F0FF4343EAC25300EE103ABDEC028B82
:1021580008BDBDEC028B30EE000A08BD1D4BDFED5B
:102168001E7A984220EE270A10DB10EE103AC3F3CD
:10217800C752193ADFE79FED198AF0EE400AB0EE30
:10218800480A00F031F820EE080ADFE7DFED140A0C
:1021980020EE200ADAE712F1160F0EDA4CF250336D
:1021A8009842E8DC9FED0E8AF0EE400AB0EE480A4D
:1021B80000F01AF820EE080AC8E7193223F0FF43A6
:1021C80043EAC253DFED077A00EE103A20EE270A01
:1021D800BCE700BFB03CFFFF0000004CCAF24971E9
:1021E8006042A20D0000003310EE103A10EE902A63
:1021F80023F0004302F00042134300EE103A704708
:1022080008B50021044600F083F8044B1868C36B36
:1022180003B19847204600F08DFB00BF1C29000839
:1022280070B50D4E0D4D761BB61006D00024013446
:1022380055F8043B9847A642F9D1094E094D761B3B
:1022480000F06CFBB61006D00024013455F8043BAE
:102258009847A642F9D170BD4429000844290008CE
:102268004C29000844290008F0B4860743D0541EBE
:10227800002A3ED0CAB2034602E014F1FF3438D334
:1022880003F8012B9D07F8D1032C2BD9CDB245EAD1
:1022980005250F2C45EA054516D9A4F110073F0975
:1022A80003F1200606EB071603F1100242E9045574
:1022B80042E902551032B242F8D104F00F04013756
:1022C800032C03EB07130DD91E462246043A032AB2
:1022D80046F8045BFAD8221F22F0030204321344A2
:1022E80004F003042CB1C9B21C4403F8011B9C423E
:1022F800FBD1F0BC704714460346C5E7024B13B147
:10230800024800F079B87047000000000D2400086A
:102318002DE9F04F354B85B00F460390186800F053
:1023280095F8334B1B68019303F5A4730293B946E0
:10233800019BD3F848613EB3DDF808A04FF00108CF
:102348007468651E0FD4013406EB84040027B9F1C4
:10235800000F20D0D4F800314B451CD0013D6B1C38
:10236800A4F10404F3D1234B73B1D6E90032002A57
:1023780034D1002B32D03046CAF80030AFF3008099
:10238800DAF80060002EDBD1184B186805B0BDE8FC
:10239800F04F00F063B873682268013BAB420CBF92
:1023A80075602760002AD9D0D6F88811D6F804B00D
:1023B80008FA05F30B4208D1904773685B45B7D11B
:1023C800DAF80030B342C9D0B2E7D6F88C01D4F8B5
:1023D8008010034207D103989047EEE7B2461E46A5
:1023E800002EADD1D0E708469047E6E74804002024
:1023F8001C29000800000000002301461A46184660
:1024080000F02EB838B50A4C0A4D641BA4100AD047
:1024180004F18043013B05EB8305013C55F8043981
:102428009847002CF9D1BDE8384000F07DBA00BFCC
:10243800502900084C290008704700BF704700BFAA
:10244800704700BF704700BF704700BF704700BFAC
:102458000120704701207047704700BF704700BFD8
:102468002DE9F8432B4D0646286898460F469146B5
:10247800FFF7ECFF284B1C68D4F84831002B3DD0FF
:102488005A681F2A0DDC02F1010C16BB0232C3F890
:1024980004C0286843F82270FFF7E0FF0020BDE879
:1024A800F8831E4B7BB34FF4C870AFF3008003462C
:1024B80048B3D4F848210021C0E900214FF0010CAD
:1024C800C4F848010A46C0F88811C0F88C11002EDB
:1024D800DCD003EB82010124C1F88890D3F888018D
:1024E80094402043022EC3F88801C1F80881CDD159
:1024F800D3F88C110C43C3F88C41C7E704F5A673D5
:10250800C4F84831BCE72868FFF7A8FF4FF0FF3050
:10251800C5E700BF480400201C290008000000008F
:10252800FEE700BF41000000530000004400000027
:10253800460000004A0000004B0000004C0000006C
:102548003B000000000FC93F000F494000CB9640F8
:10255800000FC9400053FB4000CB164100ED2F414E
:10256800000F49410031624100537B41003A8A41E2
:1025780000CB9641005CA34100EDAF41007EBC4119
:10258800000FC94100A0D5410031E24100C2EE412F
:102598000053FB4100F20342003A0A420083104212
:1025A80000CB164200141D42005C234200A52942BC
:1025B80000ED2F4200363642007E3C4200C74242C0
:1025C800000F4942A2000000F9000000830000004B
:1025D8006E0000004E0000004400000015000000DE
:1025E80029000000FC000000270000005700000040
:1025F800D1000000F500000034000000DD000000FC
:10260800C0000000DB000000620000009500000030
:10261800990000003C00000043000000900000000A
:1026280041000000FE0000005100000063000000AF
:10263800AB000000DE000000BB000000C500000089
:1026480061000000B7000000240000006E000000D8
:102658003A000000420000004D000000D2000000D7
:10266800E000000006000000490000002E00000005
:10267800EA00000009000000D100000092000000FC
:102688001C000000FE0000001D000000EB00000020
:102698001C000000B100000029000000A700000095
:1026A8003E000000E8000000820000003500000045
:1026B800F50000002E000000BB00000044000000F0
:1026C80084000000E90000009C0000007000000089
:1026D80026000000B40000005F0000007E0000003B
:1026E800410000003900000091000000D600000001
:1026F800390000008300000053000000390000008A
:10270800F40000009C000000840000005F0000004E
:102718008B000000BD000000F90000002800000048
:102728003B0000001F000000F800000097000000B8
:10273800FF000000DE000000050000009800000017
:102748000F000000EF0000002F0000001100000043
:102758008B0000005A0000000A0000006D00000015
:102768001F0000006D000000360000007E00000021
:10277800CF00000027000000CB0000000900000087
:10278800B70000004F000000460000003F000000B6
:10279800660000009E0000005F000000EA000000E4
:1027A8002D0000007500000027000000BA0000009E
:1027B800C7000000EB000000E5000000F100000089
:1027C8007B0000003D000000070000003900000009
:1027D800F70000008A00000052000000920000008C
:1027E800EA0000006B000000FB0000005F00000032
:1027F800B10000001F0000008D0000005D00000017
:10280800080000005600000003000000300000002F
:1028180046000000FC0000007B0000006B00000088
:10282800AB000000F0000000CF000000BC0000007A
:10283800200000009A000000F400000036000000AC
:102848001D000000A9000000E30000009100000046
:10285800610000005E000000E60000001B000000B0
:1028680008000000650000009900000085000000D5
:102878005F00000014000000A000000068000000D5
:10288800400000008D000000FF000000D80000009C
:10289800800000004D0000007300000027000000C9
:1028A80031000000060000000600000015000000CE
:1028B80056000000CA00000073000000A8000000D5
:1028C800C900000060000000E20000007B0000007A
:1028D800C00000008C0000006B0000000000C93F31
:1028E8000000F0390000DA370000A2330000842E1F
:1028F8000000502B0000C2270000D0220000C41F97
:102908000000C61B00004417040000000700000078
:10291800090000002000002000000000F8B500BFFA
:10292800F8BC08BC9E467047F8B500BFF8BC08BCA8
:042938009E46704700
:08293C008CD8FF7F01000000B0
:0829440005230008AD010008A5
:04294C0089010008F5
:10295000000000000000000000000000010203046D
:1029600006070809007A030A200000200000000082
:10297000000000000C03002074030020DC03002092
:102980000000000000000000000000000000000047
:102990000000000000000000000000000000000037
:1029A0000000000000000000000000000000000027
:1029B0000000000000000000000000000000000017
:1029C0000000000000000000000000000000000007
:1029D00000000000000000000000000000000000F7
:1029E00000000000000000000000000000000000E7
:1029F00000000000000000000000000000000000D7
:102A000000000000000000000000000000000000C6
:102A100000000000000000000100000000000000B5
:102A20000E33CDAB34126DE6ECDE05000B0000007A
:102A30000000000000000000000000000000000096
:102A40000000000000000000000000000000000086
:102A50000000000000000000000000000000000076
:102A60000000000000000000000000000000000066
:0C2D90000000000000000000800800208F
:0400000508001529B1
:00000001FF
